:20C00000F3C304C0310AD6CD00C3CD51C1CD23D1CD0EC1CDC5CECD38C43E2DCF2133D4CD71
:20C020002BC0CD51C0CDAEC0C316C0E50600D7FE0DCA4DC0FE08CA40C07723CF04C32EC0D1
:20C0400078B7CA2EC0052B3E08CFC32EC0AF77E1C9E52183D40150003600230B78B1C258DE
:20C06000C02133D40E00CD72C00C79FE06DA66C0E1C9C5CDA3C07EB7CAA1C07907070707AE
:20C08000E55F16002183D419EBE179B7C294C07E1223C1C97ECD2AC4CAA1C0121323C39463
:20C0A000C0C1C97EB7C8CD2AC4C023C3A3C03A83D4B7C8CDE9C07AB3C2C7C0CD38C4E521AA
:20C0C000D4C0CDFDC3E1C9CD38C401D3C0C5EBE52193D4C9556E7265636F676E697A656465
:20C0E00020436F6D6D616E6400CD6EC36F011EC11E000ABDCA03C1031C7BFE11DAF2C0115B
:20C100000000C9212FC1160019195E2356C92133D401D7003600230B78B1C214C1C9647399
:20C120006366656775696F6C6D7274787968766BC4E0C572C530C6F5CF53D070C6A2CFC13F
:20C14000CF25CE30C545CCD6CE8DD0CFCE2DD166D32181C10E067ED301230DC256C1210847
:20C160000011CFC1CD01C321100011B2C1CD01C3CD87C1213C00119EC1CD01C33E0B30FB60
:20C18000C9000000404E37F5E526C22E0036AA237DB7C28DC132E0C132E1C1E1F1C9F5E5BE
:20C1A00026C23AE1C16FDB0077237D32E1C1E1F1FBC9E5FB2AE0C17DBCCAB4C1F3C526C22D
:20C1C0003AE0C16F46237D32E0C178C1FBE1C9F5DB01E601CAD0C1F1D300C9DB01E602C951
:02C1E00000005D
:20C30000C9E536C323732372E1C9C5E506007EFE00CA19C32304C30EC378E1C1C9C5E5F592
:20C320007EB7CA31C3CD2AC4C231C3CD4FC3C320C3CD0AC3B7CA4BC3E5CD7BC3EBE11B1AFA
:20C34000CD2AC4C24BC3AF12C331C3F1E1C1C9F5E5D5E5D1131A771323B7C255C3D1E1F10B
:20C36000C9FE61DA6DC3FE7BD26DC3D620C9FE41DA7AC3FE5AD27AC3C620C9D5CD0AC35F17
:20C38000160019D1C9E50100007EB7CA9FC3CDA1C3DA9FC3CDB8C3E60FB14F23C389C3E1D0
:20C3A000C9CD1CC4DAABC3D630B7C9CD61C3CD23C4D8D641C60AB7C9D51E04CDC0C3D1C974
:20C3C000F5D5373F79174F7817471DC2C2C3D1F1C9E521E6C3CDFDC3E1CDFDC321F0C3CD2E
:20C3E000FDC3CD38C4C94572726F7220696E200020636F6D6D616E64003E2DCFC97E23B770
:20C40000C204C4C9CFC3FDC3F53E3ACFF1C9F53E20CFF1C9CD1CC4D0CD23C4C9FE30D8FEA7
:20C420003A3FC9FE41D8FE5A3FC9B7C8FE20C8FE09C8FE0DC8FE0AC9F53E0DCF3E0ACFF154
:20C44000C97CCD4AC47DCD4AC4C9F5C54F1F1F1F1FE60FCD61C4CF79E60FCD61C4CFC1F17F
:20C46000C9FE0ADA68C4C607C630C92193D47EB7C281C42AF1D4018000CDA2C40922F1D402
:20C48000C9CD85C3DA24C5C501800021A3D47EB7CA99C4CD85C3DA24C5E1CDA2C40922F1B9
:20C4A000D4C9C5E5CD38C4CD41C4CD0EC41600CDD1C414CDD1C4CD38C4C54F060009C15F01
:20C4C00079934F78DE0047DACEC4B1C2A7C4E1C1C9C5D5E57DE60F5F47CAE3C4CD08C51DF0
:20C4E000C2DCC43E10904FC57AB7CAF6C47E23CD19C5CFC3FEC47E23CD4AC4CD0EC40DC2A9
:20C50000E8C4C179E1D1C1C9F5CD0EC47AB7C217C5CD0EC4CD0EC4F1C9FE20DA21C5FE7F43
:20C52000D83E2EC9212BC5CDD1C3C944756D70002193D4B7CA66C5CD85C3DA66C5C521A346
:20C54000D4B7CA66C5CD85C3DA66C5C521B3D4B7CA66C5CD85C3DA66C5D1E17E1223130B8B
:20C5600078B1C25BC5C9216DC5CDD1C3C94D6F7665002193D4B7CAD8C5CD85C3DAD8C5C5DC
:20C5800021A3D4B7CAD8C5CD85C3DAD8C5C521B3D4B7CAD8C5CD85C3DAD8C5D1E11ABECAEE
:20C5A000A5C5CDAEC523030B78B1CAA5C5C9C5D5E5CD41C4CD0EC47ECD4AC4CD0EC40ACDBB
:20C5C0004AC4CD0EC46960CD41C4CD38C4E1D1C1C921D8C5CDD1C3C9436F6D70617265005F
:20C5E0002193D4B7CA22C6CD85C3DA22C6C521A3D4B7CA22C6CD85C3DA22C6C521B3D4B7B2
:20C60000CA22C6CD85C3DA22C6E1D17EB9C213C6CD1BC6231B7AB3CA0BC6C9CD41C4CD38B9
:20C62000C4C92129C6CDD1C3C9536561726368002193D4B7CA64C6CD85C3DA64C6C521A308
:20C64000D4B7CA64C6CD85C3DA64C6C521B3D4B7CA64C6CD85C3DA64C6D1E171231B7AB383
:20C66000C25BC6C9216BC6CDD1C3C946696C6C002193D47EB7C287C62AF9D40E20CDCFC6B8
:20C6800006000922F9D4C9CD85C3DAA9C6C521A3D47EB70E20CA9EC6CD85C3DAA9C6E1CD7B
:20C6A000CFC606000922F9D4C921B3C6CDFDC3CD38C4C94572726F7220696E20556E6173AD
:20C6C00073656D626C6520636F6D6D616E6400C5D5E5CDE4C65F1600195F79934FD2D2C63B
:20C6E000E1D1C1C9C5E522F4D45E16002175C8194E06001E03CDC0C32175C909E511070055
:20C70000197E32F8D44F3E0391572AF4D4CD41C4CD0EC47ECD4AC4230DC213C77AB7CA2B5E
:20C72000C7CD0EC4CD0EC415C31CC7CD0EC4E10E057ECF230DC231C722F6D4E523237E32A8
:20C74000F8D4E17EFE00CA9AC7219AC7E52AF4D4FE01CC15C8FE03CCC2C7FE02CCB0C7FEED
:20C7600005CCD9C7FE04CC0AC8FE06CCA3C7E12AF6D4237EFE00CA9AC7219AC7E52AF4D476
:20C780005F3E2CCF7BFE04CC0AC8FE01CC15C8FE03CCC2C7FE02CCB0C7E1CD38C43AF8D4F5
:20C7A000E1C1C9F57E1F1F1FE607CD61C4CFF1C9F57E1F1F1FE6075F160021D1C7197ECF85
:20C7C000F1C9F57EE6075F160021D1C7197ECFF1C962636465686C6D61F57E1F1F1F1F478B
:20C7E000E603FE03C2FAC7781F1FE603211DC8CAF5C72120C8CDFDC3F1C95F16002105C8EE
:20C80000197ECFF1C96264687370F5235E2356EBCD41C4F1C9F5237ECD4AC4F1C973700073
:20C8200070737700CD2CC8C8CD3AC8C9FECDC847E6C7FEC4C238C8AF78C9FEC3C847E6C705
:20C84000FEC2C246C8AF78C9FEC9C847E6C7FEC0C254C8AF78C9F5D5E55F16002175C819AE
:20C860004E06001E03CDC0C32175C909110700194EE1D1F1C900010203041505065007100F
:20C8800014041505085101020304150509580710140415050A0B010C030415050D54070E86
:20C8A000140415050F11014F030415051255071314041505161717171717171717171717EF
:20C8C000171717171717171717171717171717171717171717171717171717171717171778
:20C8E00017171717171717171717171817171717171717171719191919191919191A1A1A3E
:20C900001A1A1A1A1A1B1B1B1B1B1B1B1B1C1C1C1C1C1C1C1C1D1D1D1D1D1D1D1D1E1E1E9B
:20C920001E1E1E1E1E1F1F1F1F1F1F1F1F2020202020202020222A2C2B353D3E4623212D5F
:20C940005936343F46242A2E47373D404625572F4838524146272A31493A3D4246264A3064
:20C960004C39564346292A334D3C3D4446284B324E3B5345464E6F7020200000014C7869D6
:20C9800020200504035374617820050001496E782020050001496E7220200200014D766978
:20C9A0002020020102526C6320200000014461642020050001527263202000000152616CFA
:20C9C0002020000001526172202000000152696D202000000153686C64200400034461618F
:20C9E00020200000014C686C6420040003436D6120200000014C6461782005000153696D21
:20CA0000202000000153746320200000014C64612020040003446378202005000144637294
:20CA20002020020001436D6320200000014D6F762020020301486C74202000000141646475
:20CA40002020030001416463202003000153756220200300015362622020030001416E616D
:20CA6000202003000158726120200300014F72612020030001436D7020200300015265740E
:20CA80002020000001526E7A2020000001527A202020000001526E63202000000152632074
:20CAA0002020000001527065202000000152706F2020000001526D20202000000152702059
:20CAC0002020000001506F7020200500014A6D7020200400034A6E7A20200400034A7A20D5
:20CAE00020200400034A6E6320200400034A632020200400034A706520200400034A706FEA
:20CB000020200400034A6D2020200400034A7020202004000343616C6C20040003436E7AC1
:20CB20002020040003437A202020040003436E63202004000343632020200400034370650A
:20CB4000202004000343706F2020040003436D2020200400034370202020040003507573BC
:20CB60006820050001416469202001000241636920200100025375692020010002536269F4
:20CB80002020010002416E69202001000258726920200100024F72692020010002437069F8
:20CBA000202001000252737420200600014F75742020010002496E202020010002587468E9
:20CBC0006C200000015063686C200000015370686C200000015863686720000001446920F0
:20CBE0002020000001456920202000000253746120200400034473756220000001417268AB
:20CC00006C200000014A6E6B20200400034A6B2020200400034C646869200100024C64733A
:20CC200069200100024C686C782000000153686C78200000015264656C200000015273740E
:20CC400076200000012193D47EB7CA78CD0EFF0C7E23CD2AC4C24FCC79FE01CADCCCFE0235
:20CC6000CA88CC216DCCCDFDC3CD38C4C94572726F7220696E205265676973746572732024
:20CC8000636F6D6D616E64002193D4CD9DCCD821A3D4CD85C3D87912137812AFC92193D472
:20CCA0007ECD61C347237ECD61C34F2E0011D1CC1AB7C8D51AB8C2BFCC131AB9CAC6CC2C06
:20CCC000D11313C3B0CCD111FDD426002919EBAFC942434445484C53505043003A93D4B770
:20CCE000C8CDEACCD21FCDC329CDCD61C32110CD4F06007EB737C8B9CA00CD0423C3F3CC01
:20CD00005816002118CD195E160021FDD419AFC942434445484C41000100030205040BE5AD
:20CD200021A3D4CD85C3E171C93A93D4CD51CDD83AA3D4FE30CA3ECDFE31CA49CDC97A2F92
:20CD4000573A07D5A23207D5C93A07D5B23207D5C9CD61C32169CD477EB737C8B8CA65CDD7
:20CD60002323C358CD2356AFC953805A404B20411050045602590100CD38C4CDB9CDCDDF9D
:20CD8000CDCD38C4CDF5CDCD96CD2A05D5E5CDE4C6E122F9D4C92169CD7EB7CAB5CDCF237B
:20CDA00046230E313A07D5A0C2ADCD0E3079CFCD0EC4C399CDCD38C4C9E521D1CC0E051132
:20CDC000FDD47ECF237ECF233E3DCF1AE56F131A6713CD41C4CD0EC4E10DC2C2CDE1C9E504
:20CDE00021F1CDCDFDC33E3DCF2A07D5CD41C4E1C950535700C5D5E51110CD0E001AB7CAEB
:20CE000021CECF3E3DCF06002118CD09C54E060021FDD409C17ECD4AC4CD0EC40C13C3FD49
:20CE2000CDE1D1C1C921FFFF22FBD42145CECDFDC3CD38C4CD73CEB7C234CE2AFBD42205A6
:20CE4000D522F9D4C957616974696E6720666F72206865782066696C652075706C6F616441
:20CE6000202E2E2E2E00E52AFBD4237CB5E1C022FBD4C9D7FE3AC273CE3E2ECFCDAFCEB7FF
:20CE8000C291CECDAFCECDAFCECDAFCECDAFCEAFC94FCDAFCE67CDAFCE6FCD66CECDAFCECD
:20CEA000CDAFCE77230DC2A0CECDAFCE3E01C9C5E52133D4E5D77723D777233600E1CD85FD
:20CEC000C379E1C1C92118001132CFCD01C3C92A05D57EC3EDCE2A05D57ECD24C8C2EDCE4E
:20CEE000E5235E2356CD76CFE1C0C31DCFCD48C8C2FECEE52A03D55E2356CD76CFE1CD56B2
:20CF0000C8060009EBCD76CF2100003922D6D4C31DCF2AD6D4F9CD53CFCD78CDC931FDD4CF
:20CF2000C1D13107D5F12A03D5F92A05D5E52A01D5C92201D5E12B2205D5F5E12207D521BF
:20CF40000000392203D5696022FDD46B6222FFD4C312CF3AD8D4B7C84F21D9D411E9D4C567
:20CF60004E2346231A1302C10DC25FCFAF32D8D4C9AF32D8D4C9D51A4F3EDF121AD1FEDF09
:20CF8000C0D53AD8D4175F160021D9D419D17323723AD8D45F160021E9D419713C32D8D4ED
:20CFA000AFC92193D47EB7CAEBCFCD85C3DAEBCF21D3D436DB23712336C9CDD3D4CD4AC431
:20CFC000C92193D47EB7CAEBCFCD85C3DAEBCF21D3D436D323712336C921A3D47EB7CAE898
:20CFE000CFCD85C3DAEBCF79C3D3D421F2CFCDD1C3C9494F002193D47EB7CA46D0CD85C380
:20D00000DA46D06960CD41C4CD0EC47ECD4AC43E2ECFE5CD20D0E171237BFE20CA08D0C937
:20D020002133D4E5D7CD61C3CD14C4DA24D07723CFD7CD61C3CD14C4DA31D07723CFD77740
:20D040005FE1CD85C3C9214DD0CDD1C3C9456E74657200CD71CF2193D47EB7CA1DCFCD857A
:20D06000C3DA83D0C5E12205D521A3D47EB7CA1DCFCD85C3DA83D06960CD76CF1110001944
:20D08000C36CD0218AD0CDD1C3C9476F0021F8D0CDFDC33E13D3022100F01100E00100088F
:20D0A000CDCFD03E14D3022100F01100E8010010CDCFD03E15D3022100F0010008CDCFD0A8
:20D0C0003E00D302210ED1CDFDC30E00C300E8C5D5E51100407E1213230B78B1C2D5D0E1E5
:20D0E000D1C1C5E52100403E00D3027E1213230B78B1C2EBD0C1E1C96C6F6164696E6720A0
:20D1000043504D20322E32202E2E2E0D0A005761726D20626F6F74696E672043504D202EC5
:20D120002E2E00CD38C42102D4CDFDC3C9CD23D1CD38C4213AD1CDFDC3C9436F6D6D616E16
:20D1400064733A0D0A442044756D70204D656D6F72793A44203C616464726573733E203CBA
:20D160006C656E6774683E202020202020202020204320436F6D70617265204D656D6F7265
:20D18000793A2043203C61646472657373313E203C2061646472657373323E203C6C656E5B
:20D1A0006774683E0D0A4D204D6F7665204D656D6F72793A4D203C61646472657373313E02
:20D1C000203C61646472657373323E203C6C656E6774683E0D0A462046696C6C204D656D3E
:20D1E0006F72793A46203C616464726573733E203C6C656E6774683E203C627974653E204B
:20D2000020204520456E746572204D656D6F72793A20202043203C61646472657373313E44
:20D22000203C2061646472657373323E203C6C656E6774683E0D0A442044756D70204D651D
:20D240006D6F72793A44203C616464726573733E203C6C656E6774683E0D0A4920496E7046
:20D26000757420506F7274203A4920203C706F72743E20202020202020202020202020201E
:20D28000202020202020204F204F757470757420506F72743A202020204F203C706F7274BF
:20D2A0003E0D0A5420547261636520202020202020542020202020202020202020202020C2
:20D2C00020202020202020202020202020202059205472616365204F7665722020202020AA
:20D2E00020590D0A4720476F2020202020202020202047203C61646472657373313E203CED
:20D3000061646472657373323E2E2E2E2E0D0A5220526567697374657273202020523C666A
:20D320006C61673D5B312C305D3E202020202020202020202020202020202053205365614D
:20D34000726368204D656D6F7279202020532061646472657373204C656E677468207661C5
:20D360006C75650D0A002194D3CDFDC3CDC5D3D7FE3AC26FD32133D47723D777234F57D713
:20D38000778257230DC27FD3D7BACAB3D321F7D3CDFDC3C957616974696E6720666F72207D
:20D3A0007374617274206368617261637465723A0D0A003A35D48711D2D36F260019EB1AEE
:20D3C0006F131A67E92133D4065036772305C2CAD3C92153D4361B23361B23361223367A9B
:20D3E0002153D416000E147E23CF82570DC2E7D37ACFAFCFC36FD30D0A4261642043530D2E
:20D400000A00444454202844616C657320646562756720546F6F6C2920666F72204757388A
:13D42000303835534243202838303835292076312E300019
:00D60A011F
